{
  "contractName": "Migrations",
  "abi": [
    {
      "inputs": [],
      "name": "last_completed_migration",
      "outputs": [
        {
          "internalType": "uint256",
          "name": "",
          "type": "uint256"
        }
      ],
      "stateMutability": "view",
      "type": "function"
    },
    {
      "inputs": [],
      "name": "owner",
      "outputs": [
        {
          "internalType": "address",
          "name": "",
          "type": "address"
        }
      ],
      "stateMutability": "view",
      "type": "function"
    },
    {
      "inputs": [
        {
          "internalType": "string",
          "name": "",
          "type": "string"
        },
        {
          "internalType": "uint256",
          "name": "",
          "type": "uint256"
        }
      ],
      "name": "postsInSource",
      "outputs": [
        {
          "internalType": "string",
          "name": "sourceName",
          "type": "string"
        },
        {
          "internalType": "string",
          "name": "title",
          "type": "string"
        },
        {
          "internalType": "string",
          "name": "content",
          "type": "string"
        }
      ],
      "stateMutability": "view",
      "type": "function"
    },
    {
      "inputs": [
        {
          "internalType": "string",
          "name": "",
          "type": "string"
        }
      ],
      "name": "sources",
      "outputs": [
        {
          "internalType": "address",
          "name": "ownerId",
          "type": "address"
        },
        {
          "internalType": "string",
          "name": "name",
          "type": "string"
        },
        {
          "internalType": "bool",
          "name": "isBooked",
          "type": "bool"
        }
      ],
      "stateMutability": "view",
      "type": "function"
    },
    {
      "inputs": [
        {
          "internalType": "string",
          "name": "",
          "type": "string"
        },
        {
          "internalType": "uint256",
          "name": "",
          "type": "uint256"
        }
      ],
      "name": "tags",
      "outputs": [
        {
          "internalType": "string",
          "name": "sourceName",
          "type": "string"
        },
        {
          "internalType": "string",
          "name": "title",
          "type": "string"
        },
        {
          "internalType": "string",
          "name": "content",
          "type": "string"
        }
      ],
      "stateMutability": "view",
      "type": "function"
    },
    {
      "inputs": [
        {
          "internalType": "uint256",
          "name": "completed",
          "type": "uint256"
        }
      ],
      "name": "setCompleted",
      "outputs": [],
      "stateMutability": "nonpayable",
      "type": "function"
    },
    {
      "inputs": [
        {
          "internalType": "string",
          "name": "name",
          "type": "string"
        }
      ],
      "name": "openNewSource",
      "outputs": [],
      "stateMutability": "nonpayable",
      "type": "function"
    },
    {
      "inputs": [
        {
          "internalType": "string",
          "name": "name",
          "type": "string"
        }
      ],
      "name": "getSource",
      "outputs": [
        {
          "components": [
            {
              "internalType": "address",
              "name": "ownerId",
              "type": "address"
            },
            {
              "internalType": "string",
              "name": "name",
              "type": "string"
            },
            {
              "internalType": "bool",
              "name": "isBooked",
              "type": "bool"
            }
          ],
          "internalType": "struct Migrations.Source",
          "name": "",
          "type": "tuple"
        }
      ],
      "stateMutability": "view",
      "type": "function"
    },
    {
      "inputs": [
        {
          "internalType": "string",
          "name": "sourceName",
          "type": "string"
        },
        {
          "internalType": "string",
          "name": "title",
          "type": "string"
        },
        {
          "internalType": "string",
          "name": "content",
          "type": "string"
        }
      ],
      "name": "addPost",
      "outputs": [
        {
          "components": [
            {
              "internalType": "string",
              "name": "sourceName",
              "type": "string"
            },
            {
              "internalType": "string",
              "name": "title",
              "type": "string"
            },
            {
              "internalType": "string",
              "name": "content",
              "type": "string"
            }
          ],
          "internalType": "struct Migrations.Post",
          "name": "",
          "type": "tuple"
        }
      ],
      "stateMutability": "nonpayable",
      "type": "function"
    },
    {
      "inputs": [
        {
          "internalType": "string",
          "name": "sourceName",
          "type": "string"
        }
      ],
      "name": "getPosts",
      "outputs": [
        {
          "components": [
            {
              "internalType": "string",
              "name": "sourceName",
              "type": "string"
            },
            {
              "internalType": "string",
              "name": "title",
              "type": "string"
            },
            {
              "internalType": "string",
              "name": "content",
              "type": "string"
            }
          ],
          "internalType": "struct Migrations.Post[]",
          "name": "",
          "type": "tuple[]"
        }
      ],
      "stateMutability": "view",
      "type": "function"
    }
  ],
  "bytecode": "0x6080604052336000806101000a81548173ffffffffffffffffffffffffffffffffffffffff021916908373ffffffffffffffffffffffffffffffffffffffff16021790555034801561005057600080fd5b50611991806100606000396000f3fe608060405234801561001057600080fd5b506004361061009e5760003560e01c8063c9cf6e7911610066578063c9cf6e7914610171578063de3e2640146101a3578063ecf611f8146101bf578063f8ac2ab0146101ef578063fdacd576146102215761009e565b8063224ae14a146100a3578063445df0ac146100d35780634b4bbaac146100f15780637cc3e0e6146101235780638da5cb5b14610153575b600080fd5b6100bd60048036038101906100b891906110a7565b61023d565b6040516100ca91906116e8565b60405180910390f35b6100db61042d565b6040516100e8919061172c565b60405180910390f35b61010b6004803603810190610106919061113e565b610433565b60405161011a9392919061161c565b60405180910390f35b61013d60048036038101906101389190611066565b610628565b60405161014a919061170a565b60405180910390f35b61015b6107d1565b60405161016891906115a1565b60405180910390f35b61018b60048036038101906101869190611066565b6107f5565b60405161019a939291906115bc565b60405180910390f35b6101bd60048036038101906101b89190611066565b6108ea565b005b6101d960048036038101906101d49190611066565b610a2c565b6040516101e691906115fa565b60405180910390f35b6102096004803603810190610204919061113e565b610c5f565b6040516102189392919061161c565b60405180910390f35b61023b60048036038101906102369190611192565b610e54565b005b610245610eec565b600284604051610255919061158a565b908152602001604051809103902060020160009054906101000a900460ff166102b3576040517f08c379a00000000000000000000000000000000000000000000000000000000081526004016102aa90611688565b60405180910390fd5b3373ffffffffffffffffffffffffffffffffffffffff166002856040516102da919061158a565b908152602001604051809103902060000160009054906101000a900473ffffffffffffffffffffffffffffffffffffffff1673ffffffffffffffffffffffffffffffffffffffff1614610362576040517f08c379a0000000000000000000000000000000000000000000000000000000008152600401610359906116a8565b60405180910390fd5b60006040518060600160405280868152602001858152602001848152509050600385604051610391919061158a565b908152602001604051809103902081908060018154018082558091505060019003906000526020600020906003020160009091909190915060008201518160000190805190602001906103e5929190610f0d565b506020820151816001019080519060200190610402929190610f0d565b50604082015181600201908051906020019061041f929190610f0d565b505050809150509392505050565b60015481565b600482805160208101820180518482526020830160208501208183528095505050505050818154811061046557600080fd5b906000526020600020906003020160009150915050806000018054610489906118a3565b80601f01602080910402602001604051908101604052809291908181526020018280546104b5906118a3565b80156105025780601f106104d757610100808354040283529160200191610502565b820191906000526020600020905b8154815290600101906020018083116104e557829003601f168201915b505050505090806001018054610517906118a3565b80601f0160208091040260200160405190810160405280929190818152602001828054610543906118a3565b80156105905780601f1061056557610100808354040283529160200191610590565b820191906000526020600020905b81548152906001019060200180831161057357829003601f168201915b5050505050908060020180546105a5906118a3565b80601f01602080910402602001604051908101604052809291908181526020018280546105d1906118a3565b801561061e5780601f106105f35761010080835404028352916020019161061e565b820191906000526020600020905b81548152906001019060200180831161060157829003601f168201915b5050505050905083565b610630610f93565b600282604051610640919061158a565b908152602001604051809103902060020160009054906101000a900460ff1661069e576040517f08c379a000000000000000000000000000000000000000000000000000000000815260040161069590611688565b60405180910390fd5b6002826040516106ae919061158a565b90815260200160405180910390206040518060600160405290816000820160009054906101000a900473ffffffffffffffffffffffffffffffffffffffff1673ffffffffffffffffffffffffffffffffffffffff1673ffffffffffffffffffffffffffffffffffffffff16815260200160018201805461072d906118a3565b80601f0160208091040260200160405190810160405280929190818152602001828054610759906118a3565b80156107a65780601f1061077b576101008083540402835291602001916107a6565b820191906000526020600020905b81548152906001019060200180831161078957829003601f168201915b505050505081526020016002820160009054906101000a900460ff1615151515815250509050919050565b60008054906101000a900473ffffffffffffffffffffffffffffffffffffffff1681565b6002818051602081018201805184825260208301602085012081835280955050505050506000915090508060000160009054906101000a900473ffffffffffffffffffffffffffffffffffffffff1690806001018054610854906118a3565b80601f0160208091040260200160405190810160405280929190818152602001828054610880906118a3565b80156108cd5780601f106108a2576101008083540402835291602001916108cd565b820191906000526020600020905b8154815290600101906020018083116108b057829003601f168201915b5050505050908060020160009054906101000a900460ff16905083565b6002816040516108fa919061158a565b908152602001604051809103902060020160009054906101000a900460ff1615610959576040517f08c379a000000000000000000000000000000000000000000000000000000000815260040161095090611668565b60405180910390fd5b600160028260405161096b919061158a565b908152602001604051809103902060020160006101000a81548160ff021916908315150217905550806002826040516109a4919061158a565b908152602001604051809103902060010190805190602001906109c8929190610f0d565b50336002826040516109da919061158a565b908152602001604051809103902060000160006101000a81548173ffffffffffffffffffffffffffffffffffffffff021916908373ffffffffffffffffffffffffffffffffffffffff16021790555050565b6060600382604051610a3e919061158a565b9081526020016040518091039020805480602002602001604051908101604052809291908181526020016000905b82821015610c545783829060005260206000209060030201604051806060016040529081600082018054610a9f906118a3565b80601f0160208091040260200160405190810160405280929190818152602001828054610acb906118a3565b8015610b185780601f10610aed57610100808354040283529160200191610b18565b820191906000526020600020905b815481529060010190602001808311610afb57829003601f168201915b50505050508152602001600182018054610b31906118a3565b80601f0160208091040260200160405190810160405280929190818152602001828054610b5d906118a3565b8015610baa5780601f10610b7f57610100808354040283529160200191610baa565b820191906000526020600020905b815481529060010190602001808311610b8d57829003601f168201915b50505050508152602001600282018054610bc3906118a3565b80601f0160208091040260200160405190810160405280929190818152602001828054610bef906118a3565b8015610c3c5780601f10610c1157610100808354040283529160200191610c3c565b820191906000526020600020905b815481529060010190602001808311610c1f57829003601f168201915b50505050508152505081526020019060010190610a6c565b505050509050919050565b6003828051602081018201805184825260208301602085012081835280955050505050508181548110610c9157600080fd5b906000526020600020906003020160009150915050806000018054610cb5906118a3565b80601f0160208091040260200160405190810160405280929190818152602001828054610ce1906118a3565b8015610d2e5780601f10610d0357610100808354040283529160200191610d2e565b820191906000526020600020905b815481529060010190602001808311610d1157829003601f168201915b505050505090806001018054610d43906118a3565b80601f0160208091040260200160405190810160405280929190818152602001828054610d6f906118a3565b8015610dbc5780601f10610d9157610100808354040283529160200191610dbc565b820191906000526020600020905b815481529060010190602001808311610d9f57829003601f168201915b505050505090806002018054610dd1906118a3565b80601f0160208091040260200160405190810160405280929190818152602001828054610dfd906118a3565b8015610e4a5780601f10610e1f57610100808354040283529160200191610e4a565b820191906000526020600020905b815481529060010190602001808311610e2d57829003601f168201915b5050505050905083565b60008054906101000a900473ffffffffffffffffffffffffffffffffffffffff1673ffffffffffffffffffffffffffffffffffffffff163373ffffffffffffffffffffffffffffffffffffffff1614610ee2576040517f08c379a0000000000000000000000000000000000000000000000000000000008152600401610ed9906116c8565b60405180910390fd5b8060018190555050565b60405180606001604052806060815260200160608152602001606081525090565b828054610f19906118a3565b90600052602060002090601f016020900481019282610f3b5760008555610f82565b82601f10610f5457805160ff1916838001178555610f82565b82800160010185558215610f82579182015b82811115610f81578251825591602001919060010190610f66565b5b509050610f8f9190610fcc565b5090565b6040518060600160405280600073ffffffffffffffffffffffffffffffffffffffff168152602001606081526020016000151581525090565b5b80821115610fe5576000816000905550600101610fcd565b5090565b6000610ffc610ff784611778565b611747565b90508281526020810184848401111561101457600080fd5b61101f848285611861565b509392505050565b600082601f83011261103857600080fd5b8135611048848260208601610fe9565b91505092915050565b60008135905061106081611944565b92915050565b60006020828403121561107857600080fd5b600082013567ffffffffffffffff81111561109257600080fd5b61109e84828501611027565b91505092915050565b6000806000606084860312156110bc57600080fd5b600084013567ffffffffffffffff8111156110d657600080fd5b6110e286828701611027565b935050602084013567ffffffffffffffff8111156110ff57600080fd5b61110b86828701611027565b925050604084013567ffffffffffffffff81111561112857600080fd5b61113486828701611027565b9150509250925092565b6000806040838503121561115157600080fd5b600083013567ffffffffffffffff81111561116b57600080fd5b61117785828601611027565b925050602061118885828601611051565b9150509250929050565b6000602082840312156111a457600080fd5b60006111b284828501611051565b91505092915050565b60006111c7838361146f565b905092915050565b6111d881611819565b82525050565b6111e781611819565b82525050565b60006111f8826117b8565b61120281856117db565b935083602082028501611214856117a8565b8060005b85811015611250578484038952815161123185826111bb565b945061123c836117ce565b925060208a01995050600181019050611218565b50829750879550505050505092915050565b61126b8161182b565b82525050565b61127a8161182b565b82525050565b600061128b826117c3565b61129581856117ec565b93506112a5818560208601611870565b6112ae81611933565b840191505092915050565b60006112c4826117c3565b6112ce81856117fd565b93506112de818560208601611870565b6112e781611933565b840191505092915050565b60006112fd826117c3565b611307818561180e565b9350611317818560208601611870565b80840191505092915050565b6000611330601c836117fd565b91507f5468697320736f7572636520697320616c72656164792074616b656e000000006000830152602082019050919050565b60006113706014836117fd565b91507f54686520736f75726365206e6f7420666f756e640000000000000000000000006000830152602082019050919050565b60006113b06024836117fd565b91507f596f752073686f756c6420626520616e206f776e6572206f662074686520736f60008301527f75726365000000000000000000000000000000000000000000000000000000006020830152604082019050919050565b60006114166033836117fd565b91507f546869732066756e6374696f6e206973207265737472696374656420746f207460008301527f686520636f6e74726163742773206f776e6572000000000000000000000000006020830152604082019050919050565b6000606083016000830151848203600086015261148c8282611280565b915050602083015184820360208601526114a68282611280565b915050604083015184820360408601526114c08282611280565b9150508091505092915050565b600060608301600083015184820360008601526114ea8282611280565b915050602083015184820360208601526115048282611280565b9150506040830151848203604086015261151e8282611280565b9150508091505092915050565b600060608301600083015161154360008601826111cf565b506020830151848203602086015261155b8282611280565b91505060408301516115706040860182611262565b508091505092915050565b61158481611857565b82525050565b600061159682846112f2565b915081905092915050565b60006020820190506115b660008301846111de565b92915050565b60006060820190506115d160008301866111de565b81810360208301526115e381856112b9565b90506115f26040830184611271565b949350505050565b6000602082019050818103600083015261161481846111ed565b905092915050565b6000606082019050818103600083015261163681866112b9565b9050818103602083015261164a81856112b9565b9050818103604083015261165e81846112b9565b9050949350505050565b6000602082019050818103600083015261168181611323565b9050919050565b600060208201905081810360008301526116a181611363565b9050919050565b600060208201905081810360008301526116c1816113a3565b9050919050565b600060208201905081810360008301526116e181611409565b9050919050565b6000602082019050818103600083015261170281846114cd565b905092915050565b60006020820190508181036000830152611724818461152b565b905092915050565b6000602082019050611741600083018461157b565b92915050565b6000604051905081810181811067ffffffffffffffff8211171561176e5761176d611904565b5b8060405250919050565b600067ffffffffffffffff82111561179357611792611904565b5b601f19601f8301169050602081019050919050565b6000819050602082019050919050565b600081519050919050565b600081519050919050565b6000602082019050919050565b600082825260208201905092915050565b600082825260208201905092915050565b600082825260208201905092915050565b600081905092915050565b600061182482611837565b9050919050565b60008115159050919050565b600073ffffffffffffffffffffffffffffffffffffffff82169050919050565b6000819050919050565b82818337600083830152505050565b60005b8381101561188e578082015181840152602081019050611873565b8381111561189d576000848401525b50505050565b600060028204905060018216806118bb57607f821691505b602082108114156118cf576118ce6118d5565b5b50919050565b7f4e487b7100000000000000000000000000000000000000000000000000000000600052602260045260246000fd5b7f4e487b7100000000000000000000000000000000000000000000000000000000600052604160045260246000fd5b6000601f19601f8301169050919050565b61194d81611857565b811461195857600080fd5b5056fea2646970667358221220a62fd6cfb4526bb9101b6a503e6199f638b498fb2cff34c8478a63a23c55f30064736f6c63430008000033",
  "source": "pragma solidity 0.8.0;\n\ncontract Migrations {\n    address public owner = msg.sender;\n    uint public last_completed_migration;\n\n    struct Source {\n        address ownerId;\n        string name;\n        bool isBooked;\n    }\n\n    struct Post {\n        string sourceName;\n        string title;\n        string content;\n    }\n\n    mapping(string => Source) public sources;\n    mapping(string => Post[]) public postsInSource;\n    mapping(string => Post[]) public tags;\n\n    modifier restricted() {\n        require(\n            msg.sender == owner,\n            \"This function is restricted to the contract's owner\"\n        );\n        _;\n    }\n\n    function setCompleted(uint completed) public restricted {\n        last_completed_migration = completed;\n    }\n\n    function openNewSource(string memory name) public {\n        require(!sources[name].isBooked, \"This source is already taken\");\n        sources[name].isBooked = true;\n        sources[name].name = name;\n        sources[name].ownerId = msg.sender;\n    }\n\n    function getSource(string memory name) view public returns (Source memory) {\n        require(sources[name].isBooked, \"The source not found\");\n\n        return sources[name];\n    }\n\n    function addPost(string memory sourceName, string memory title, string memory content) public returns (Post memory) {\n        require(sources[sourceName].isBooked, \"The source not found\");\n        require(sources[sourceName].ownerId == msg.sender, \"You should be an owner of the source\");\n\n        Post memory post = Post(sourceName, title, content);\n        postsInSource[sourceName].push(post);\n\n        return post;\n    }\n\n    function getPosts(string memory sourceName) view public returns (Post[] memory) {\n        return postsInSource[sourceName];\n    }\n}\n",
  "sourcePath": "/home/grzegorz/projects/studies/PBL/truffle/contracts/Migrations.sol",
  "compiler": {
    "name": "solc",
    "version": "0.8.0+commit.c7dfd78e.Emscripten.clang"
  },
  "schemaVersion": "3.4.3",
  "updatedAt": "2021-09-09T16:54:12.692Z",
  "devdoc": {
    "kind": "dev",
    "methods": {},
    "version": 1
  },
  "userdoc": {
    "kind": "user",
    "methods": {},
    "version": 1
  }
}